:10000000C10FBC0091FEF0042053F8000400D4009E
:10001000F00114008500F0040400F008C202D400CE
:10002000C100BC009102D400F009C2018600C101E8
:10003000601AC100C6018805D00091005024C1009B
:10004000BC009101D400304B8C050400F008C202C2
:10005000D400C100BC009102D400F009C2018600A6
:10006000C6018805200688058C050400F008C20238
:10007000D400C100BC009101D400F009C201860087
:10008000C601880520068805F009C2018200C60164
:100090008805304BD4000400F008D000C603F006F9
:1000A000D0001400E0000400D400F0011400850228
:1000B000F0048C0520880400F008D000C6FFD400AE
:1000C00088058C050400F008C2FFD40020068805CE
:1000D0000400F008D000C6FED40088058C0504009A
:1000E000F008C2FED400208488058805C100BC0049
:1000F0009100D400307CD4000400F008D000C60287
:10010000F006D0001400E000F009C201CC00E000CD
:08011000F009C800C601E0007F
:02080000BEEF49
:021FFE000000E1
:00000001FF
