:10000000C10FBC0091FEF0042055F8000400D4009C
:10001000F00114008501F0040400F008C203D400CC
:10002000C100BC009102D400F009C2018600C101E8
:10003000601AC100C6018805D00091005024C1009B
:10004000BC009101D400304D8C050400F008C203BF
:10005000D400C100BC009102D400F009C2018600A6
:10006000C60188052006880588058C050400F0086F
:10007000C203D400C100BC009101D400F009C20148
:100080008600C6018805200688058805F009C2019A
:100090008200C6018805304DD4000400F008D0006D
:1000A000C604F006D0001400E0000400D400F00103
:1000B00014008503F0048C05208D88050400F008E9
:1000C000D000C6FFD40088058C050400F008C2FFEC
:1000D000D4002006880588050400F008D000C6FE7C
:1000E000D40088058C050400F008C2FED4002089E5
:1000F000880588058805C100BC009100D4003081C6
:10010000D4000400F008D000C603F006D0001400AC
:10011000E000F009C201CC00E000F009C800C6010F
:02012000E000FD
:02080000BEEF49
:021FFE000000E1
:00000001FF
